:060000000A128A110E280D
:10000800FE00030EF0000408F1000A08F2000A12CC
:100018008A1116280A128A111128F30183010A127B
:100028008A114728831203138C1E1B281C283E287C
:100038008C121A08F3000614861406152D280610CB
:100048003E2886103E2806113E2806108610061106
:100058003E287308303A03193E28713A03192728B5
:10006800133A03192328063A03192928023A0319CF
:1000780025283E2872088A0071088400700E8300C3
:10008800FE0E7E0E0900831603138601FF308312CD
:100098000313860083160313071387170A128A119E
:1000A8005B200A128A1157280A128A110E28193061
:1000B8008316031399009816181518128312031340
:1000C800981718161813831603138C160B178B170B
:0200D80008001E
:02400E00313F40
:00000001FF
